:020000040800F2
:10000000E00600204501000841110008AF07000884
:100010003D11000853020008051800080000000008
:1000200000000000000000000000000011130008A4
:100030005702000800000000F9110008FD13000835
:100040005F0100085F0100085F0100085F01000810
:100050005F0100085F0100086D0200085F010008F1
:100060005F0100085F0100085F0100085F010008F0
:100070005F0100085F0100085F0100085F010008E0
:100080005F0100085F0100085F0100085F010008D0
:100090005F0100085F0100085F0100085F010008C0
:1000A0005F0100085F0100085F0100085F010008B0
:1000B0005F0100085F0100085F0100085F010008A0
:1000C0005F0100085F0100085F0100085F01000890
:1000D0005F010008DD1400085F0100085F010008EF
:1000E000E90200085F0100085F0100085F010008E5
:1000F0005F0100085F0100085F0100085F01000860
:100100005F0100085F0100085F0100085F0100084F
:100110005F0100085F0100085F0100085F0100083F
:100120005F0100085F0100085F0100085F0100082F
:10013000DFF80CD000F05CF800480047911D000883
:10014000E00600200648804706480047FEE7FEE735
:10015000FEE7FEE7FEE7FEE7FEE7FEE7FEE7FEE777
:100160007D140008310100080649074A0868504319
:1001700043F23902104408604008704701490860A2
:1001800070470000780000206D4EC6412DE9F05FF9
:100190000546002092469B468846064681464024F6
:1001A0001BE0284641464746224600F042F85346A7
:1001B0005A46C01A914110D311461846224600F003
:1001C00029F82D1A67EB01084F462246012000212D
:1001D00000F020F817EB00094E41201EA4F10104A5
:1001E000DFDC484631462A464346BDE8F09F000022
:1001F000064C074D06E0E06840F0010394E8070074
:1002000098471034AC42F6D3FFF796FFF85E00082B
:10021000185F0008202A04DB203A00FA02F10020CF
:1002200070479140C2F1200320FA03F31943904034
:100230007047202A04DB203A21FA02F0002170479F
:1002400021FA02F3D040C2F120029140084319463E
:10025000704700BFFEE7704701B502E00098401EFE
:10026000009000980028F9D108BD000010B50120C9
:1002700000F080F878B303201749088017A001F038
:10028000C3FA184890F8F200012804D10320154958
:1002900081F8F2001CE0134890F8F200022804D123
:1002A0000420104981F8F20012E00E4890F8F200A4
:1002B000032804D102200B4981F8F20008E0094824
:1002C00090F8F200042803D10120064981F8F200D9
:1002D000012000F049F810BD2C0000206B6579204A
:1002E000310A0000F800002010B54FF4005000F073
:1002F00041F880B304201849088018A001F084FA5E
:10030000184890F8F200012804D10420154981F81A
:10031000F2001CE0134890F8F200022804D10320F8
:10032000104981F8F20012E00E4890F8F20003281C
:1003300004D101200B4981F8F20008E0094890F847
:10034000F200042803D10220064981F8F2004FF49C
:10035000005000F009F810BD2C0000206B657920DA
:10036000320A0000EC0100200149086070470000DB
:1003700014040140014600200022074B1B6803EAD9
:100380000102054B14331B680B4013B10AB1012065
:1003900000E00020704700000004014000212349D4
:1003A0008279002A3AD00A46126803689A430B46BB
:1003B0001A600A1D126803689A430B1D1A600279BD
:1003C00011440A6803681A430A60184A083212681E
:1003D00003689A43154B08331A601A1D12680368A4
:1003E0009A43124B0C331A604279102A0ED11A1F0D
:1003F000126803681A430D4B08331A601A1D1268FD
:1004000003681A43094B0C331A600DE0074942791F
:1004100011440A6803681A430A6005E0027911442E
:100420000A6803689A430A607047000000040140AC
:100430000EB50121052000F0F1FE00F082FE012042
:10044000ADF8080004208DF80B0002A9374800F031
:100450001FF90021084600F0FBF801200090002061
:100460008DF8040008208DF8050001208DF80600A5
:100470006846FFF793FF4FF40050ADF808000420E2
:100480008DF80B0002A92A4800F002F90D21022084
:1004900000F0DEF84FF40050009000208DF80400CA
:1004A0000C208DF8050001208DF806006846FFF746
:1004B00075FF4FF48060ADF8080004208DF80B0044
:1004C00002A91B4800F0E4F80A21022000F0C0F85D
:1004D0004FF48060009000208DF804000C208DF80F
:1004E000050001208DF806006846FFF757FF4FF41E
:1004F0000060ADF8080004208DF80B0002A90C483C
:1005000000F0C6F80B21022000F0A2F84FF40060C2
:10051000009000208DF804000C208DF805000120CB
:100520008DF806006846FFF739FF0EBD0008014050
:100530000010014051B18200A2F1C042126842F0A5
:1005400001038200A2F1C042136009E08200A2F11F
:10055000C0421268034B1A408300A3F1C0431A60E3
:1005600070470000FEFF0F00D0E901121143C2687E
:100570001143026911434269114382691143C269FF
:100580001143026A1143426A1143826A1143C26AEB
:100590001143026B114302689200A2F1C042116044
:1005A000816808290BD101688900A1F1C04109685F
:1005B00041F0400201688900A1F1C0410A60416B2D
:1005C0000968426B526841EA0211426B926841EA43
:1005D0000221426B928941EA0241426B128A41EA4E
:1005E0000251426B127D41EA0261426B92691143F2
:1005F0000268521C9200A2F1C0421160C16AB1F5BA
:10060000804F1BD1816B0968826B526841EA0211ED
:10061000826B926841EA0221826B128A41EA02519E
:10062000826B127D41EA0261826B9269114302681A
:100630009200A2F1C042C2F8041107E06FF07042CC
:1006400001688900A1F1C041C1F804217047000090
:1006500030B500228B071C0F0F2303FA04F20B4B5B
:100660008C1053F824309343084C8D1044F82530F7
:1006700023468C1053F824308C07240F00FA04F41E
:100680002343024C8D1044F8253030BD0800014052
:100690002DE9F04102460025002600200023002419
:1006A000002791F803C00CF00F0591F803C00CF07F
:1006B000100CBCF1000F03D091F802C04CEA050504
:1006C00091F800C0BCF1000F31D0146800202BE07D
:1006D0004FF0010C0CFA00F3B1F800C00CEA03066D
:1006E0009E4220D183004FF00F0C0CFA03F7BC435D
:1006F00005FA03FC4CEA040491F803C0BCF1280F8E
:1007000006D14FF0010C0CFA00FCC2F814C00AE04C
:1007100091F803C0BCF1480F05D14FF0010C0CFA61
:1007200000FCC2F810C0401C0828D1D31460B1F8F6
:1007300000C0BCF1FF0F34DD546800202EE000F152
:10074000080C4FF0010808FA0CF3B1F800C00CEAED
:1007500003069E4221D183004FF00F0C0CFA03F7E1
:10076000BC4305FA03FC4CEA040491F803C0BCF155
:10077000280F05D100F1080C08FA0CF8C2F8148013
:1007800091F803C0BCF1480F07D100F1080C4FF0FD
:10079000010808FA0CF8C2F81080401C0828CED3D3
:1007A0005460BDE8F081416170470161704700BF4E
:1007B000FEE7000010B504462CB14FF48051054807
:1007C000FFF7F1FF04E04FF480510248FFF7EDFF1F
:1007D00010BD0000001401402DE9F04106460F460F
:1007E00014461D462B4622463946304600F0A4FAF0
:1007F00004FB05F00249098800F051F9BDE8F081D9
:100800004600002001B502E00098401E00900098CC
:100810000028F9D108BD00002DE9F05F8046894627
:100820001646A6F120001FFA80FA1E490968898839
:100830001C4A1268D28801FB02F0C11700EB51710B
:10084000C1F3C7071748006800680AFB070B154883
:100850000068C3881348006882884946404600F013
:100860006BFA2C2000F0EAFB002416E0002510E0D3
:100870001BF8040080212941084020B10A48008863
:1008800000F0E0FB03E00948008800F0DBFB681C97
:10089000C5B2082DECDB601CC4B2BC42E6DBBDE88F
:1008A000F09F00004000002044000020460000208F
:1008B00070B504460D46002624E030461349096809
:1008C0008988084412490988884205DD00260F48B6
:1008D0000068C088204484B220460C490968C98851
:1008E00008440C490988884201DD002600242A7842
:1008F00021463046FFF790FF6D1C04480068808851
:10090000304486B228780028D7D170BD400000203E
:10091000380000203A0000202DE9FF4F83B08146C7
:100920004FF0000AD3460598A0EB090504990698F4
:10093000461ACDF8049004980090002D01DD01279F
:1009400005E00DB9002702E04FF0FF376D42002EA1
:1009500002DD4FF0010806E016B94FF0000802E092
:100960004FF0FF387642B54201DD2C4600E03446B8
:100970000020029019E0DDE9001000F043FBAA44DA
:10098000B344A24505DDAAEB040A0198384480B2BD
:100990000190A34505DDABEB040B0098404480B209
:1009A00000900298401C80B20290611C029888421C
:1009B000E1DD07B0BDE8F08F2DE9F04104460D46BA
:1009C00016461F46DDF81880B8F1000F0CD03B46E4
:1009D00032462946204600F0AFF906FB07F01749DA
:1009E000098800F05CF827E0A019401E82B22B466F
:1009F00029462046FFF790FFE819401E83B2A01950
:100A0000401E82B2E819401E81B22046FFF784FFE3
:100A1000E819401E83B2224629462046FFF77CFF94
:100A2000E919491E8BB2A119491E8AB2A119491EA2
:100A300088B22946FFF770FFBDE8F081440000202E
:100A400000B597B00121080200F0D8FB0120019009
:100A500004200390800607900020029004900590E7
:100A600006900890099008200A9010200B90002012
:100A70000C900E900F9010904FF480501190002029
:100A800012901390149001A81590169008A8FFF7E3
:100A90006BFD01210020FFF74DFD17B000BD70B5C3
:100AA00004460D4600262C2000F0C8FA00BF03E0E3
:100AB000284600F0C7FA761CA642F9D370BD0000A4
:100AC00008B50121602000F0A9FB03208DF8020089
:100AD00018208DF803004FF48040ADF800006946FF
:100AE0005B48FFF7D5FD4FF40040ADF800006946C4
:100AF0005748FFF7CDFD0120ADF800006946544886
:100B0000FFF7C6FD0220ADF8000069465048FFF728
:100B1000BFFD8020ADF8000069464E48FFF7B8FDE4
:100B20004FF48070ADF8000069464A48FFF7B0FD09
:100B30004FF40070ADF8000069464648FFF7A8FD85
:100B40004FF48060ADF8000069464248FFF7A0FD11
:100B50004FF40060ADF8000069463E48FFF798FD8D
:100B60004FF48050ADF8000069463A48FFF790FD19
:100B70004FF40050ADF8000069463648FFF788FD95
:100B80004FF48040ADF8000069463248FFF780FD21
:100B90004FF40040ADF8000069462E48FFF778FD9D
:100BA0004FF48070ADF8000069462948FFF770FDEA
:100BB0004FF40070ADF8000069462548FFF768FD66
:100BC0004FF48060ADF8000069462148FFF760FDF2
:100BD00003208DF8020018208DF803001020ADF8D6
:100BE000000069461A48FFF753FD2020ADF80000C9
:100BF00069461748FFF74CFD8020ADF800006946B4
:100C00001348FFF745FD4FF40060ADF8000069465A
:100C10000F48FFF73DFD10208DF8030003208DF8ED
:100C200002000220ADF8000069460A48FFF730FDD7
:100C300010208DF8030003208DF802004FF480503F
:100C4000ADF8000069460248FFF722FD08BD00002C
:100C5000001401400018014010B50446072C00DDC7
:100C600010BD28480470204604EBD0714910A4EB55
:100C7000410139B9F020244908804FF4A07023497C
:100C8000088006E04FF4A0701F490880F0201F493B
:100C90000880362000F0D2F9082141EA441000F023
:100CA000D1F92A2000F0CAF9002000F0CBF9002089
:100CB00000F0C8F914490988491EC1F3072000F063
:100CC000C1F911490978491EC8B200F0BBF92B20BF
:100CD00000F0B4F9002000F0B5F9002000F0B2F9FE
:100CE0000A490988491EC1F3072000F0ABF90749FA
:100CF0000978491EC8B200F0A5F92C2000F09EF931
:100D000000BFADE73C000020380000203A00002082
:100D100010B5FFF7D5FEFFF793FE0120FFF74AFD60
:100D200000F052F900F038F802480078FFF794FF1D
:100D300010BD00003C0000202DE9F04104460D46A6
:100D400016461F462A2000F079F9201200F07AF9A1
:100D5000E0B200F077F9A119491EC1F30F2000F0AD
:100D600071F9A119491EC8B200F06CF92B2000F0EE
:100D700065F9281200F066F9E8B200F063F9E919A4
:100D8000491EC1F30F2000F05DF9E919491EC8B2F0
:100D900000F058F9BDE8F08110B5CF2000F04EF911
:100DA000002000F04FF9812000F04CF9302000F0D5
:100DB00049F9ED2000F042F9642000F043F90320E6
:100DC00000F040F9122000F03DF9812000F03AF9DE
:100DD000E82000F033F9852000F034F9102000F00D
:100DE00031F9782000F02EF9CB2000F027F93920D6
:100DF00000F028F92C2000F025F9002000F022F95D
:100E0000342000F01FF9022000F01CF9F72000F058
:100E100015F9202000F016F9EA2000F00FF9002063
:100E200000F010F9002000F00DF9B12000F006F9F3
:100E3000002000F007F91B2000F004F9B62000F0B4
:100E4000FDF80A2000F0FEF8A22000F0FBF8C02018
:100E500000F0F4F8352000F0F5F8C12000F0EEF8CD
:100E6000112000F0EFF8C52000F0E8F8452000F070
:100E7000E9F8452000F0E6F8C72000F0DFF8A220EE
:100E800000F0E0F8F22000F0D9F8002000F0DAF8E5
:100E9000262000F0D3F8012000F0D4F8E02000F084
:100EA000CDF80F2000F0CEF8262000F0CBF824205B
:100EB00000F0C8F80B2000F0C5F80E2000F0C2F8D2
:100EC000092000F0BFF8542000F0BCF8A82000F082
:100ED000B9F8462000F0B6F80C2000F0B3F817205F
:100EE00000F0B0F8092000F0ADF80F2000F0AAF8EB
:100EF000072000F0A7F8002000F0A4F8E12000F09F
:100F00009DF8002000F09EF8192000F09BF81B20AF
:100F100000F098F8042000F095F8102000F092F806
:100F2000072000F08FF82A2000F08CF8472000F00E
:100F300089F8392000F086F8032000F083F80620B5
:100F400000F080F8062000F07DF8302000F07AF8FC
:100F5000382000F077F80F2000F074F8362000F009
:100F60006DF8C82000F06EF82A2000F067F8002025
:100F700000F068F8002000F065F8002000F062F84A
:100F8000EF2000F05FF82B2000F058F8002000F070
:100F900059F8002000F056F8012000F053F83F20E7
:100FA00000F050F83A2000F049F8552000F04AF8D7
:100FB000112000F043F80348FFF724FC292000F03B
:100FC0003DF810BDFCBF020010B502210748FFF735
:100FD000EAFB40F6FF20FFF715FC02210348FFF76C
:100FE000E4FB40F6FF20FFF70DFC10BD00180140A8
:100FF00070B504460D4601231A4629462046FFF7E0
:101000009BFE70BD70B505460C46094800888542B8
:101010000CDA08480088844208DA21462846FFF79F
:10102000E7FF054801880120FFF739FD70BD00008A
:10103000380000203A000020440000204FF0C0415A
:101040000880704701490880704700000000026076
:1010500008B50121142000F0E1F80120ADF80000EE
:1010600004208DF8030069460C48FFF711FB4FF48C
:101070000050ADF8000004208DF8030069460848D0
:10108000FFF706FB4FF48060ADF8000004208DF8F8
:10109000030069460248FFF7FBFA08BD000801405B
:1010A0000010014001480068704700004000002027
:1010B000024A1080024A118070470000440000205C
:1010C00046000020014908607047000040000020F1
:1010D00001490880704700004400002008B5012144
:1010E000082000F09BF82020ADF8000010208DF8BB
:1010F000030003208DF8020069460F48FFF7C8FA85
:101100000120ADF8000069460B48FFF7C1FA022044
:10111000ADF8000069460848FFF7BAFA20210648F2
:10112000FFF743FB01210448FFF73FFB0221024880
:10113000FFF73BFB08BD0000000C014000BFFEE7CD
:10114000704708B54FF4C06000F04CF806208DF8E9
:10115000000001208DF801008DF802008DF80300D9
:10116000684600F007F828208DF80000684600F077
:1011700001F808BD70B5002100230F22C47804B324
:10118000154C246804F4E064C4F5E064210AC1F15C
:101190000403CA40447804FA03F1847814402143DC
:1011A00009010E4C0678A155047804F01F050124AE
:1011B000AC4005786D11AD0005F1E025C5F80041A2
:1011C00009E0047804F01F050124AC40044D0678C2
:1011D000761145F8264070BD0CED00E000E400E01B
:1011E00080E100E002490143024A116070470000BB
:1011F0000000FA050CED00E07047000029B1064A36
:1012000052690243044B5A6104E0034A5269824323
:10121000014B5A61704700000010024029B1064A94
:1012200092690243044B9A6104E0034A9269824343
:10123000014B9A61704700000010024030B5002158
:101240000022002400232D4D6D6805F00C0121B112
:10125000042905D0082923D105E0294D056022E0A5
:10126000274D05601FE0254D6D6805F47012234D74
:101270006D6805F48034022505EB92421CB9214DBE
:10128000554305600BE01D4D6D6805F400351DB13B
:101290001C4D5543056002E0194D5543056002E0C1
:1012A000174D056000BF00BF144D6D6805F0F001DB
:1012B0000909154D6B5C0568DD4045600F4D6D6893
:1012C00005F4E061090A104D6B5C4568DD408560FE
:1012D0000A4D6D6805F46051C90A0B4D6B5C456899
:1012E000DD40C560054D6D6805F44041890B074D33
:1012F0006B5CC568B5FBF3F5056130BD00100240BD
:1013000000127A0000093D00140000202400002093
:10131000704710B500F002F810BD00000CB50020B9
:10132000019000903348006840F4803031490860F3
:1013300000BF3048006800F4003000900198401C65
:101340000190009818B90198B0F5A06FF1D1294823
:10135000006800F4003010B10120009001E000208E
:1013600000900098012843D12348006840F0100005
:10137000214908600846006820F00300086008461C
:10138000006840F0020008601A4840681949486047
:101390000846406848600846406840F480604860FD
:1013A0000846406820F47C1048600846406840F4D5
:1013B000E81048600846006840F08070086000BF90
:1013C0000C48006800F000700028F9D00948406817
:1013D00020F00300074948600846406840F00200DA
:1013E000486000BF0348406800F00C000828F9D1AD
:1013F0000CBD0000001002400020024070470000B9
:1014000030B51A4800681A4AB0FBF2F1B1F1807F9A
:1014100001D301201DE021F07F40401E4FF0E0226B
:10142000506150170F22002807DA13071D0E114BC9
:1014300000F00F04241F1D5503E013071C0E0E4B74
:101440001C5400BF00204FF0E02290610720106183
:10145000002008B100BFFEE74FF0E020006920F057
:1014600001004FF0E021086130BD000000000020C5
:1014700040420F0018ED00E000E400E010B5134812
:10148000006840F0010011490860084640681049B2
:1014900008400E494860084600680E4908400B495C
:1014A00008600846006820F480200860084640680C
:1014B00020F4FE0048604FF41F008860FFF729FF0A
:1014C0004FF000600449086010BD000000100240A9
:1014D0000000FFF8FFFFF6FE08ED00E010B504463F
:1014E00040F22551184800F0CEF800282BD040F2E9
:1014F0002551154800F03EF81348001D0088C4B27D
:101500001248046012A000F07FF9214614A000F0F8
:101510007BF90E48016813A000F076F90B480068CB
:10152000012806D1114981F8F2000220104981F802
:10153000F200022C07D102200C4981F8F2000120B0
:101540000B4981F8F20010BD003801405400002022
:10155000CAD5B5BDB5C4CAFDBEDDA3BA0A00000038
:1015600025640A00307825780A000000F800002081
:10157000EC01002010B50022002340F66A14A142BD
:1015800000D100BF0A1201249440A3B2DC430480BE
:1015900010BD21B1828942F40052828104E0828927
:1015A0004DF6FF731A4082817047000000B587B086
:1015B00001210420FFF732FE01218803FFF72EFEF0
:1015C0004FF40070ADF8180018208DF81B000320B0
:1015D0008DF81A0006A92348FFF75AF84FF48060E7
:1015E000ADF8180004208DF81B0006A91D48FFF770
:1015F0004FF84FF4E13002900020ADF80C00ADF848
:101600000E00ADF81000ADF814000C20ADF812007B
:1016100002A9154800F086F801211348FFF7B9FF29
:1016200025208DF8040000208DF8050002208DF89B
:10163000060001208DF8070001A8FFF79BFD01229D
:1016400040F22551084800F048F801210648FFF70C
:10165000A0FF012240F22551034800F03EF807B0F8
:1016600000BD000000080140003801400246002093
:10167000B1F5007F00D100BF13880B400BB10120F2
:1016800000E00020704770B50246002400230025CA
:10169000002040F66A16B14200D100BFC1F34215E6
:1016A00001F01F03012606FA03F3012D02D19689EA
:1016B000334006E0022D02D1168A334001E0968ABB
:1016C00033400C12012606FA04F41688344013B194
:1016D0000CB1012000E0002070BDF0B503460024ED
:1016E00000260025002040F66A17B94200D100BF4D
:1016F0001846C1F3421401F01F06012707FA06F548
:10170000012C01D10C3004E0022C01D1103000E09A
:1017100014301AB107682F43076002E00768AF432F
:101720000760F0BD2DE9F04786B005460E4600245F
:10173000A24600BFA1460027B08900B100BF2F46D6
:101740002C8A4CF6FF700440F08804432C82AC894C
:101750004EF6F3100440B08831890843718908437C
:101760000443AC81AC8A4FF6FF400440B089044387
:10177000AC8201A8FFF762FD1F48874202D1DDF865
:1017800010A001E0DDF80CA0A88900F4004040B1F1
:101790000AEBCA0000EB0A1031684900B0FBF1F80F
:1017A00007E00AEBCA0000EB0A1031688900B0FBC1
:1017B000F1F86420B8FBF0F004012009642101FB7A
:1017C0001089A88900F4004040B1322000EBC90024
:1017D000B0FBF1F000F00700044308E0322000EB1A
:1017E00009106421B0FBF1F000F00F0004432C81DC
:1017F00006B0BDE8F087000000380140C1F30802E0
:101800008280704700BFFEE70FB4054B10B503A9F7
:10181000044A029800F02CF810BC5DF814FB00009C
:10182000DD1C00087C0000200FB4084B10B504A993
:1018300002AA039800F01CF8044602A9002000F058
:1018400048FA204610BC5DF814FB0000D31C0008C9
:1018500002E008C8121F08C1002AFAD17047704779
:10186000002001E001C1121F002AFBD170470000D7
:101870002DE9FF4F8DB00F460546002606E02528CE
:101880000BD0DDE90F1290476D1C761C28780028DC
:10189000F5D111B03046BDE8F08F0024A246A14634
:1018A0000122EC4900E0044315F8013F203B02FA15
:1018B00003F00842F7D128782A2810D06FF02F02C1
:1018C0002878A0F13001092914D80AEB8A0102EB2B
:1018D000410144F0020400EB010A6D1CF0E701CF66
:1018E0005FEA000A03D544F40054CAF1000A44F048
:1018F00002046D1C28782E2817D115F8010F44F02A
:1019000004042A280ED06FF02F022878A0F13001AD
:1019100009290AD809EB890102EB410100EB010911
:101920006D1CF2E757F8049B6D1C28786C280FD0CB
:1019300006DC4C2817D068280DD06A2814D104E0A2
:10194000742810D07A280FD10DE044F400140AE076
:1019500044F4801401E044F440146978814202D1D7
:1019600004F580146D1C6D1C2A786E2A1FD00CDCC7
:10197000632A31D004DC002A8BD0582A11D1A3E08D
:10198000642A68D0692A0CD165E0732A2ED004DC61
:101990006F2A73D0702A04D19BE0752A6FD0782A01
:1019A0006ED01046DDE90F129047761C50E1C4F36B
:1019B0000250022806D0032809D0042801CF09D0FC
:1019C000066045E101CFF117C0E9006140E101CFB8
:1019D00006803DE106703BE117F8040B8DF800002E
:1019E00000208DF80100EB46012003E057F804BB0E
:1019F0004FF0FF3061074FF0000102D40DE008F115
:101A00000101884649450FDA8045F8DB1BF80810CC
:101A10000029F4D108E008F1010188468142FADB8F
:101A20001BF808100029F6D1DDE90F23AAEB080006
:101A30008146214600F036F9304400EB080604E008
:101A4000DDE90F121BF8010B9047B8F10108F7D23E
:101A500021464846F7E00A21C4F302534FF0000B39
:101A60000891022B04D001CFC117032B09D00AE043
:101A7000FF1D27F00707F7E8020108E032E01FE04A
:101A800020E000B2C117042B01D140B2C117031EE0
:101A900071F1000307DA4FF0000CD0EB0C006CEB97
:101AA00001012D2302E0230504D52B238DF82430DA
:101AB000012303E0E30701D02023F7E7984658E02D
:101AC0000A2110E010210EE010204FF0000B0890CA
:101AD0000CE010214FF0000B44F004044FF0080913
:101AE000089103E008214FF0000B0891C4F3025362
:101AF000022B04D001CF0021032B06D006E0FF1DEE
:101B000027F00707F7E8020103E080B2042B00D1B9
:101B1000C0B24FF0000823072BD5702A07D0DDF89C
:101B200020C08CF0100C5CEA0B0C05D00EE04023BA
:101B30008DF82430012308E050EA010306D0302359
:101B40008DF824308DF8252002239846DDF820C03A
:101B50008CF0080C5CEA0B0C0BD150EA010301D1AC
:101B6000630706D530238DF824304FF00108A9F122
:101B70000109582A04D038A20B9208AA0A920BE055
:101B80003AA2F9E75B46089AFEF700FB0B9B9B5CC9
:101B90000A9A521E0A92137050EA0102F2D10A9870
:101BA000ADEB000000F1200B600702D524F4803477
:101BB00001E04FF00109D94502DDA9EB0B0000E07F
:101BC000002000EB0B0141440890AAEB010AE0035E
:101BD00006D4DDE90F232146504600F063F80644A1
:101BE0004FF0000908E009A911F80900DDE90F121A
:101BF000904709F10109761CC145F4DBE0030CD5DF
:101C0000DDE90F232146504600F04CF8064404E07D
:101C1000DDE90F1230209047761C0899481E089085
:101C20000029F5DC08E00A980A990078491C0A9115
:101C3000DDE90F129047761CBBF10001ABF1010BFF
:101C4000F1DC21465046DDE90F2300F019F8064487
:101C50006D1C1BE60928010030313233343536372C
:101C600038396162636465660000000030313233E8
:101C70003435363738394142434445460000000088
:101C80002DE9F041044600251E461746880404D479
:101C900005E039462020B0476D1C641EF9D5284662
:101CA000BDE8F0812DE9F041044600251E4690462E
:101CB000C80301D5302700E02027880404D505E0BB
:101CC00041463846B0476D1C641EF9D52846BDE82C
:101CD000F0810A68531C0B601070704770B50446A1
:101CE0000D46E1B20548FFF789FD00BF802103489A
:101CF000FFF7BCFC0028F9D0204670BD0038014039
:101D000010B54FF47840FFF7E3F911480388114804
:101D1000028800210846FEF75FFD0F4802880FA1E8
:101D20001448FFF781FDFFF7BDF9C08800EB800084
:101D30004004040C0F492046FEF7BAFDFFF7B2F944
:101D4000C088C004040C0CA12046FEF7B1FD10BDF4
:101D50003A000020380000203200002020202020FF
:101D6000202020204655434B20464F4F44203A2008
:101D700025640000940000202020202020202059ED
:101D80004F5520415245204655434B4544210000C4
:101D900008B50620FEF760FFFEF7BAFFFFF79EF9D1
:101DA000FFF704FCFFF754F9FFF72AFB1048FFF791
:101DB00089F900214FF47840FFF77AF9FEF738FBF4
:101DC0000C4803880C48028800210846FEF704FDF1
:101DD0000CE000204FF48773F02201460090FEF7DC
:101DE000EBFD06A0FFF710FD00F00CF8F1E7000096
:101DF000600000203A0000203800002074657374F1
:101E00000A00000070B588B005250220FE4981F85F
:101E1000F000002081F8F100012081F8F20002209A
:101E2000FA4981F8F000002081F8F100022081F8E1
:101E3000F2000020F6490880042088700120F5494E
:101E400088700020F04908803220A1F878000A202C
:101E500048803221EC48A0F87A10F020EB49088045
:101E60003220A1F87800E62048803221E748A0F827
:101E70007A10E9A00290ECA00390EFA00490F2A0E9
:101E80000590F5A00690F8A0079074E200204FF4AA
:101E90008773F02201460090FEF78EFD02A850F8ED
:101EA0002530DB480288F4A1F848FFF7BDFCFFF7B6
:101EB000F9F8C08800EBC0004004060CF349304636
:101EC000FEF7F6FCD348807801281DD1FEF74CF9C7
:101ED000162190FBF1F201FB120000EB80000A21B9
:101EE00001EB4000CB490870FEF73EF9192190FB49
:101EF000F1F201FB120000EB80000A2101EB40002F
:101F0000C449487000208870C248807868B90021B0
:101F10004FF4FC60FFF7CCF80120BE4A00905178E6
:101F200010780A231A46FEF747FDB74890F8F000EC
:101F3000401E84B20FE0601EB34931F8100021F852
:101F40001400601E783131F81010AF48783020F856
:101F50001410601E84B2002CEDDCAB4890F8F20047
:101F6000012806D002280AD003280ED004281CD14C
:101F700013E0A54800880A30A349088015E0A2486C
:101F800000880A38A04908800FE09F48B0F8780020
:101F90000A389D49A1F8780007E09B48B0F878001E
:101FA0000A309949A1F8780000BF00BF00214FF620
:101FB000E070FFF77DF800240EE00120924A7832AD
:101FC000009032F81410783A32F814000A231A46B6
:101FD000FEF7F2FC601C84B28B4890F8F000A0423F
:101FE000EBDC8A4890F8F000401E84B20FE0601EDF
:101FF000864931F8100021F81400601E783131F85C
:1020000010108248783020F81410601E84B2002C22
:10201000EDDC7E4890F8F200012806D002280AD0B4
:1020200003280ED004281CD113E0784800880A3019
:102030007649088015E0754800880A387349088099
:102040000FE07248B0F878000A387049A1F87800BB
:1020500007E06E48B0F878000A306C49A1F87800C3
:1020600000BF00BF00211F20FFF722F800240EE070
:102070000120664A7832009032F81410783A32F82B
:1020800014000A231A46FEF797FC601C84B25F48CE
:1020900090F8F000A042EBDC7D48FEF7DDF8002070
:1020A000FFF716F80120584A009092F8F020521ECF
:1020B000554B783333F81210534A92F8F020521EE1
:1020C000783B33F812000A231A46FEF775FC01200C
:1020D0004E4A009092F8F020521E4C4B783333F861
:1020E00012104A4A92F8F020521E783B33F8120040
:1020F0000A231A46FEF760FC4FF4FC60FEF7E8FF87
:102100004148008800280EDB3F480088E6280ADCAA
:102110003D48B0F87800002805DB3B48B0F878006F
:10212000B0F5827F03DD0120374981F8F1000324F7
:1021300016E0354830F814003349098888420DD13B
:102140003148783030F814002F49B1F878108842BF
:1021500004D12F488078401E2D498870601C84B2BD
:10216000294890F8F000A042E3DC284800880028C5
:102170000EDB26480088E6280ADC2448B0F8780000
:10218000002805DB2148B0F87800B0F5827F03DD38
:1021900001201E4981F8F100032416E01B4830F8A5
:1021A00014001A49098888420DD11848783030F84F
:1021B00014001649B1F87810884204D11448807888
:1021C000401E13498870601C84B2104890F8F000DB
:1021D000A042E3DC0C4890F8F100012807D00B483E
:1021E00090F8F100012802D00948807850B9FFF733
:1021F00087FD6FF07F40FEF72FF86FF07F40FEF70E
:102200002BF847E04FE00000F8000020EC01002030
:10221000320000202E00002047524541542120204A
:102220002020202020000000474F4F442120202064
:1022300020202020200000004252494C4C49414EB1
:102240005421202020000000455843454C4C454E69
:102250005421202020000000554E42454C4945564F
:1022600041424C4521000000202020202020202039
:1022700020202020200000004655434B20464F4F91
:1022800044203A202564202025730000940000207B
:10229000FFFF0F003A4803883A48028800210846A9
:1022A000FEF79AFA68E03848008838490978884289
:1022B0002DD13548B0F8780034494978884226D184
:1022C0000020FEF705FF0120304A00905178107879
:1022D0000A231A46FEF770FB4FF4FC60FEF7F8FE87
:1022E000294890F8F000401C274981F8F000284860
:1022F0000088401C26490880FDF736FF052190FB29
:10230000F1F201FB120085B20120204988702148BA
:1023100000881E49097888422DD11E48B0F87800FF
:102320001A494978884226D10020FEF7D1FE0120C3
:10233000164A0090517810780A231A46FEF73CFBA3
:102340004FF4FC60FEF7C4FE124890F8F000401C09
:10235000104981F8F0000E480088401C0C490880A4
:10236000FDF702FF052190FBF1F201FB120085B29F
:1023700001200649887089E500BF08B070BD0000E3
:102380003A00002038000020F80000202E00002035
:1023900032000020EC0100200000000000000000DE
:1023A00000000000000000000000001818181818B5
:1023B000180800081800000000000034242424003D
:1023C00000000000000000000000000016247F2430
:1023D00024247E2424000000000000083E68486891
:1023E0001C1612127C10100000000061D2967408B6
:1023F00010162949C6000000000000003C64643843
:10240000724ACE467F00000000000018181818001D
:102410000000000000000000000000040818103058
:102420003030301010180C04000000201008080C88
:102430000404040C08181020000000080A341C6A68
:102440000800000000000000000000000000181854
:10245000187F18181800000000000000000000009D
:102460000000001818083000000000000000000004
:10247000003C000000000000000000000000000020
:1024800000000018180000000000000206040C08FC
:102490000810102020400000000000003C66424769
:1024A0005B7342663C00000000000000187848089A
:1024B000080808087E000000000000003C460606F0
:1024C000040810207E000000000000007C060604C6
:1024D0003C0202067C000000000000000C1C1424DA
:1024E0006444FF0404000000000000007E6060609F
:1024F0007E0202067C000000000000001E306048E2
:10250000764242623C000000000000007E020604A9
:102510000C08181030000000000000003C62423639
:102520001C6642423C000000000000003C66424243
:10253000661A02047800000000000000000018186D
:10254000000000181800000000000000000018182B
:1025500000000018180830000000000000000418F7
:102560003060100C060000000000000000000000B9
:102570007E007E0000000000000000000000301817
:1025800004060C1020000000000000301C060606A7
:1025900018100010100000000000001C224141DD56
:1025A000B5A5A5AF94C0403C00000000181C342421
:1025B00026627E43C1000000000000007C464246C7
:1025C0007C4242427C000000000000001E2040408F
:1025D000404040603E000000000000007C46424356
:1025E0004343424678000000000000007E606060C7
:1025F0007E6060607E000000000000007E60606021
:102600007E60606060000000000000001E604040CE
:10261000CE4242623E0000000000000042424242C0
:102620007E42424242000000000000007E1818185E
:10263000181818187E000000000000007C04040434
:1026400004040444780000000000000042444850A4
:1026500070584C4442000000000000002020202060
:10266000202020203E000000000000006266675F1E
:102670005B5BC1C1C10000000000000062627252D9
:102680005A4A4E4646000000000000003C6243C328
:10269000C3C343623C000000000000007C4642428D
:1026A0004678404040000000000000003C6243C308
:1026B000C3C343623C180F00000000007C666266E2
:1026C0007C6C646662000000000000003E604060B8
:1026D0001C0602027C000000000000007F18181891
:1026E000181818181800000000000000424242426A
:1026F000424242623C00000000000000C1434262CE
:102700002624341C1800000000000000C1C141490B
:102710005B5B7666660000000000000043663418CC
:10272000181C2466C300000000000000C14266348B
:102730001C18181818000000000000007E02040C8D
:10274000181020607E0000000000001C1010101007
:10275000101010101010101C00000040202010104D
:1027600008080C04060200000000003C0C0C0C0CD5
:102770000C0C0C0C0C0C0C3C00000000181C24620F
:102780000000000000000000000000000000000049
:1027900000000000000000FF00000020100000000A
:1027A00000000000000000000000000000003C06E7
:1027B000023E42467A0000000000004040405C6259
:1027C000424242427C0000000000000000001E2047
:1027D000604060203E0000000000000202023E62F5
:1027E000424242663A0000000000000000003C62E5
:1027F000427E40603E0000000000000F1810107E76
:1028000010101010100000000000000000003F66D3
:10281000426658403E43423C0000004040405C62FB
:1028200042424242420000000000001818007808AE
:10283000080808087E000000000000040C007C046A
:102840000404040404040C78000000606060626CFE
:1028500078706864620000000000007808080808CA
:10286000080808087E000000000000000000764B09
:102870004B4B4B4B4B0000000000000000005C6223
:1028800042424242420000000000000000003C6260
:10289000424342623C0000000000000000005C6215
:1028A000424242427C4040400000000000003E6244
:1028B000424242663A0202020000000000006E72CC
:1028C00063606060600000000000000000003E20C7
:1028D000203C06027C000000000000001010FE10EA
:1028E000101010101E000000000000000000424206
:1028F000424242663A0000000000000000004342ED
:102900006624341818000000000000000000C1C157
:102910005B5A5E6666000000000000000000622650
:102920001C181C266200000000000000000043424A
:102930006624341C181830E00000000000007E06F9
:102940000C1810207E0000000000000E181010105F
:10295000307010101010180E000008080808080841
:1029600008080808080808080000003018080808C7
:102970000C0E0808080818300000000000000000D5
:10298000714B060000000000000000000000000085
:102990000000000000000000000000000000000037
:1029A0000000000000000000000000000000000027
:1029B0000000000000000000000000000000000017
:1029C000000003800180018001800180018001807E
:1029D0000180018001800000000003C003C00000EE
:1029E00000000000000000000000000000000000E7
:1029F00000000E700E700E700C3000000000000021
:102A000000000000000000000000000000000000C6
:102A100000000000000000000000000000000000B6
:102A2000000000000618063806307FFE0C300C301F
:102A30000C300C307FFE0C601C60186018600000C9
:102A40000000000000000000000000000000000086
:102A500000C000C00FF83CC831C031803D801F80ED
:102A600003F001F8031C030C031C3FF83FE00700D0
:102A70000600000000000000000000000000000050
:102A80001C007E0E630C631863307E6000C0018002
:102A90000300077C0EE61CC618C630C6607C00002A
:102AA0000000000000000000000000000000000026
:102AB00000000FE01CF0387038701C601FC00F0061
:102AC0003F8C71CC60EC607C70383CFC1FCE000009
:102AD00000000000000000000000000000000000F6
:102AE000000003C0018001800180000000000000A0
:102AF00000000000000000000000000000000000D6
:102B000000000000000000000000000000000000C5
:102B1000003000E001C0018003000700060006004D
:102B20000E000E000E000E000600070003000380DA
:102B300001C000E0003000000000000000000000C4
:102B40000C0006000380018001C000E0006000600E
:102B50000070007000700060006000E000C0018044
:102B6000038006000C0000000000000000000000D0
:102B70000000018011881DB803C007E03DBC01883A
:102B800001800000000000000000000000000000C4
:102B90000000000000000000000000000000000035
:102BA0000000000000000000018001800180018021
:102BB00001807FFE01800180018001800000000013
:102BC0000000000000000000000000000000000005
:102BD00000000000000000000000000000000000F5
:102BE000000000000000000003C003C001C001C0DD
:102BF00003801F0000000000000000000000000033
:102C000000000000000000000000000000000000C4
:102C100000000FF0000000000000000000000000B5
:102C200000000000000000000000000000000000A4
:102C30000000000000000000000000000000000094
:102C4000000000000000000003C003C003C000003B
:102C50000000000000000000000000000000000074
:102C60000000001800380030006000E000C001C023
:102C700001800300030006000E000C001C00180079
:102C80003000000000000000000000000000000014
:102C9000000001800FF01C38381C301C707E70EE74
:102CA000738E7E0E7C0C300C381C1E780FE00000FA
:102CB0000000000000000000000000000000000014
:102CC0000000000007C01FC039C001C001C001C022
:102CD00001C001C001C001C001C03FFC3FFC0000B9
:102CE00000000000000000000000000000000000E4
:102CF000000003801FF01838003800180038003832
:102D0000007001E0038007001C003FFC3FFC000056
:102D100000000000000000000000000000000000B3
:102D2000000007801FF0003800380038003007E04E
:102D300007F00038001C001C001820F83FE00000DD
:102D40000000000000000000000000000000000083
:102D50000000000000F001B0033007300E301C30DE
:102D6000383070307FFE7FFE0030003000300000D1
:102D70000000000000000000000000000000000053
:102D8000000000001FF818001800180018001FE0CD
:102D900000F8001C001C001C003800F01FC00000E0
:102DA0000000000000000000000000000000000023
:102DB0000000000003F80F001C001800300037F876
:102DC0003C3C300C300C380C381C1E380FF0000026
:102DD00000000000000000000000000000000000F3
:102DE000000000003FFC001C00180038007000606C
:102DF00000E001C001800380070006000E00000013
:102E000000000000000000000000000000000000C2
:102E1000000003C01FF8381C381C381C1C380FF089
:102E200007F01C78381C300C381C3C380FF00000C0
:102E30000000000000000000000000000000000092
:102E4000000003801FF03838301C701C700C380CE8
:102E50001FFC0FCC001C001800701FE01F8000003A
:102E60000000000000000000000000000000000062
:102E70000000000000000000000003C003C001804B
:102E8000000000000000000003C003C003C00000F9
:102E90000000000000000000000000000000000032
:102EA0000000000000000000000003C003C001801B
:102EB000000000000000000003C003C001C001C00A
:102EC00003800F0000000000000000000000000070
:102ED0000000000000000000003800F001C0070002
:102EE0001E0038000E00078001C000700030000096
:102EF00000000000000000000000000000000000D2
:102F000000000000000000000000000000003FFC86
:102F1000000000003FFC3FFC00000000000000003B
:102F200000000000000000000000000000000000A1
:102F300000000000000000001C000F00038001E002
:102F40000078001C007001E003800E000C000000FF
:102F50000000000000000000000000000000000071
:102F600000000FC000F0003800380038003803F0CF
:102F700003800300030000000000078007800000BA
:102F80000000000000000000000000000000000041
:102F900000E007F80C0C18063006700363F3663384
:102FA000C673CC63CC62CC66CCE6C7FCE0006000A4
:102FB000700038101FF0000000000000000000004A
:102FC0000000000003C007E006E00E700E700C3039
:102FD0001C3818183FFC3FFC700E600EE007000024
:102FE00000000000000000000000000000000000E1
:102FF000000000003FF03838381C381C38383FF0EB
:103000003FF8381C380C380C381C3FF83FE0000003
:1030100000000000000000000000000000000000B0
:10302000000000E007FC1E0438003800300070008B
:1030300070007000300038003C001F9C07FC00004E
:103040000000000000000000000000000000000080
:10305000000000003FF03078301C300C300E300E95
:10306000300E300E300E301C30383FF03FC00000C4
:103070000000000000000000000000000000000050
:10308000000000001FF818001800180018001FF8B2
:103090001FF818001800180018001FF81FF800008B
:1030A0000000000000000000000000000000000020
:1030B000000000001FF818001800180018001FF882
:1030C0001FF8180018001800180018001800000059
:1030D00000000000000000000000000000000000F0
:1030E000000000F007FC1E04380030007000700083
:1030F00070FC700C700C300C380C1F1C07FC0000AE
:1031000000000000000000000000000000000000BF
:1031100000000000300C300C300C300C300C3FFC48
:103120003FFC300C300C300C300C300C300C0000FC
:10313000000000000000000000000000000000008F
:10314000000000003FFC01800180018001800180BF
:10315000018001800180018001803FFC3FFC000074
:10316000000000000000000000000000000000005F
:10317000000000001FF00030003000300030003050
:10318000003000300030003000701DE01FC0000033
:10319000000000000000000000000000000000002F
:1031A00000000000381C387038E039C03B803F0018
:1031B0003F003B8039C038E038703838381C000098
:1031C00000000000000000000000000000000000FF
:1031D000000000001C001C001C001C001C001C0047
:1031E0001C001C001C001C001C001FFC1FFC00001D
:1031F00000000000000000000000000000000000CF
:1032000000000000381C7C3C6C3E6E6E666E66CE24
:1032100063C663866186600660066006600600001D
:10322000000000000000000000000000000000009E
:10323000000000003C0C3C0C3E0C360C330C338C74
:10324000318C31CC30EC306C307C303C301C0000A8
:10325000000000000000000000000000000000006E
:10326000000001C00FF81C3C381C700E700E600688
:103270006006700E700E700C381C1E780FE0000097
:10328000000000000000000000000000000000003E
:10329000000000003FF0383C381C380C380C381C5B
:1032A00038783FE038003800380038003800000037
:1032B000000000000000000000000000000000000E
:1032C000000001C00FF81C3C381C700E700E600628
:1032D0006006700E700E700C381C1E780FE00180B6
:1032E00001C000FF003C00000000000000000000E2
:1032F000000000003FF0383838183818383838F0F7
:103300003FC038E0387038383838381C380E000084
:1033100000000000000000000000000000000000AD
:10332000000001E00FF83800380038003C001F8032
:1033300003F00078001C001C001C38783FE00000FF
:10334000000000000000000000000000000000007D
:10335000000000007FFE018001800180018001806B
:1033600001800180018001800180018001800000D6
:10337000000000000000000000000000000000004D
:1033800000000000300C300C300C300C300C300CD5
:10339000300C300C300C300C381C1C380FF0000096
:1033A000000000000000000000000000000000001D
:1033B00000000000E006700E700E381C381C1C184F
:1033C0001C380C300E70066007E003C003C000001C
:1033D00000000000000000000000000000000000ED
:1033E0000000000060066006600660066186638675
:1033F00073C673CE766C366C3C3C3C3C381C00008B
:1034000000000000000000000000000000000000BC
:1034100000000000301C38181C380E7007E003C094
:1034200003C007E00E701C381838381C700E0000FE
:10343000000000000000000000000000000000008C
:1034400000000000700E700C381C1C380E700660F6
:1034500007E003C00180018001800180018000003D
:10346000000000000000000000000000000000005C
:10347000000000003FFC001C0038007000E001C0AC
:10348000038007000E000C0018003FFC3FFC00000A
:10349000000000000000000000000000000000002C
:1034A00007F007F00600060006000600060006000A
:1034B00006000600060006000600060006000600DC
:1034C0000600060007F000000000000000000000F9
:1034D000000018001C000C00060007000300038019
:1034E000018001C000C0006000700030003800188A
:1034F000000C0000000000000000000000000000C0
:103500000FE00FE00060006000600060006000609D
:1035100000600060006000600060006000600060AB
:10352000006000600FE000000000000000000000EC
:103530000000000003C006C006600C301818301CE4
:10354000000000000000000000000000000000007B
:10355000000000000000000000000000000000006B
:10356000000000000000000000000000000000005B
:10357000000000000000000000000000000000004B
:1035800000000000FFFF000000000000000000003D
:1035900000001E000380000000000000000000008A
:1035A000000000000000000000000000000000001B
:1035B000000000000000000000000000000000000B
:1035C000000000000000000000001FF01038001C88
:1035D000001C0FFC1C1C381C381C3CFC1FDC0000B1
:1035E00000000000000000000000000000000000DB
:1035F000000038003800380038003BF83E1C3C1C06
:10360000380C380C380C380C381C3C781FE00000A3
:1036100000000000000000000000000000000000AA
:103620000000000000000000000007F80E001C0071
:1036300038003800380038001C000F1807F8000068
:10364000000000000000000000000000000000007A
:103650000000001C001C001C001C0FFC1C1C381C63
:10366000301C301C301C301C383C1CFC0F9C0000F3
:10367000000000000000000000000000000000004A
:10368000000000000000000000000FF01C38381C93
:10369000300C3FFC3000300038001E0C07FC0000EE
:1036A000000000000000000000000000000000001A
:1036B000003C01FE03800300030003007FFC7FFC4D
:1036C00003000300030003000300030003000000E5
:1036D00000000000000000000000000000000000EA
:1036E000000000000000000000000FFE1C38381829
:1036F000381818381FF03B8030003FF01FFC300EA8
:10370000700E381C1FF800000000000000000000D0
:10371000000038003800380038003BF83E383C1CC8
:10372000381C381C381C381C381C381C381C00004D
:103730000000000000000000000000000000000089
:10374000018003C003C0000000001FC001C001C011
:1037500001C001C001C001C001C001C03FFC0000A8
:103760000000000000000000000000000000000059
:10377000002000700070000000003FF0007000703A
:1037800000700070007000700070007000700070B9
:10379000007020E03FC000000000000000000000BA
:1037A00000001800180018001800183C187018E0E5
:1037B0001B801F001B8019E018701838181C0000AF
:1037C00000000000000000000000000000000000F9
:1037D00000001FC001C001C001C001C001C001C084
:1037E00001C001C001C001C001C001C03FFC000018
:1037F00000000000000000000000000000000000C9
:10380000000000000000000000006F3C79EE71CE67
:10381000718E718E718E718E718E718E718E0000AF
:103820000000000000000000000000000000000098
:10383000000000000000000000003BF83E383C1C87
:10384000381C381C381C381C381C381C381C00002C
:103850000000000000000000000000000000000068
:10386000000000000000000000000FF01C3C381CAD
:10387000700E700E700E700C381C1E780FE0000079
:103880000000000000000000000000000000000038
:10389000000000000000000000003BF83E1C3C1C43
:1038A000380C380C380C380C381C3C783FE03800A9
:1038B0003800380038000000000000000000000060
:1038C000000000000000000000000FFC1C1C381C61
:1038D000301C301C301C301C383C1CFC0F9C001C65
:1038E000001C001C001C0000000000000000000084
:1038F0000000000000000000000019F81F1C1C0C54
:10390000180E180018001800180018001800000001
:1039100000000000000000000000000000000000A7
:10392000000000000000000000000FF81C0018005C
:103930001E000FC001F80018001818381FF0000012
:103940000000000000000000000000000000000077
:10395000000000000600060006007FFC06000600CE
:1039600006000600060006000700078401FC0000B0
:103970000000000000000000000000000000000047
:1039800000000000000000000000381C381C381C3B
:10399000381C381C381C381C383C1CFC0FDC000060
:1039A0000000000000000000000000000000000017
:1039B00000000000000000000000700C381C3818E7
:1039C0001C380C300E70066007E003C003C0000016
:1039D00000000000000000000000000000000000E7
:1039E0000000000000000000000060066006618624
:1039F000738E73CC33CC366C366C3C3C3C38000058
:103A000000000000000000000000000000000000B6
:103A100000000000000000000000381C1C380E7080
:103A200007E003C003C007E00E701C38381E00001A
:103A30000000000000000000000000000000000086
:103A400000000000000000000000700C381C381856
:103A50001C380C300E70066007E003C003C0038002
:103A600007000E007C0000000000000000000000C5
:103A7000000000000000000000001FF80038007087
:103A800000E001C0038007000C001FFC3FFC0000A9
:103A90000000000000000000000000000000000026
:103AA000007801F803800380038003800380030013
:103AB0003F003E00030003800380038003800380F7
:103AC000038001C000F800000000000001800180B8
:103AD00001800180018001800180018001800180DE
:103AE00001800180018001800180018001800180CE
:103AF0000180018001800000000000000000000043
:103B00001E001F80018001C001C001C001C000C0B3
:103B100000FC007C00C001C001C001C001C001C0A8
:103B200001C003801F000000000000000000000032
:103B300000000000000000000000000000001C0069
:103B40003F0671CE60FC0000000000000000000095
:103B50000000000000000000000000000000000065
:103B60000000000000000000000000000000000055
:103B70000000000000000000000000000000000045
:103B80000000000000000000000000000000000035
:103B90000000000000000000000000000000000025
:103BA0000000000000000000000000000000000015
:103BB0000000000000000000000000000000000005
:103BC00000000000000000000000003C00003C007D
:103BD000003C00003C00003C00003C00003C0000B9
:103BE0003C00003C00003C00003C00003C00003C6D
:103BF00000003C00000000000000003C00007E00CF
:103C0000003C000000000000000000000000000078
:103C100000000000000000000000000000000000A4
:103C20000000000000000000000003C3E003C3E048
:103C300003C3C003C3C003C3C003C3C003C1C000E8
:103C40000000000000000000000000000000000074
:103C50000000000000000000000000000000000064
:103C60000000000000000000000000000000000054
:103C70000000000000000000000000000000000044
:103C80000000000000000000000000000000000034
:103C900001E0E001C0E001C0E001C0E03FFFFE3F05
:103CA000FFFE03C1C00381C00381C00381C07FFF49
:103CB000FC7FFFFC078380070380070380070380E6
:103CC0000707800000000000000000000000000066
:103CD00000000000000000000000000000000000E4
:103CE00000000000000000000700000F00000E00B0
:103CF00001FFF007FFF01F0E001E1E001E1C001E1D
:103D00001C000FDC0007FC0000FF80003FF00038C3
:103D1000F800387800783C0070783071F83FFFE0A8
:103D20001FFF0000E00000E00000E00000000000D5
:103D30000000000000000000000000000000000083
:103D4000000000000000000000000F800F3FE01E98
:103D500078703C7070707070E07071C03FE3801FCD
:103D6000C700000E00001C0000780000F0F001E722
:103D7000FC03CF0E078E0E0F0E0E1E0E0E3C07BC60
:103D80007003F800000000000000000000000000C8
:103D90000000000000000000000000000000000023
:103DA0000000000000000000000000000001FF0013
:103DB00007FF800F03C00F03C00F03C00F0780076A
:103DC0009F0003FE0003F0000FF83C3E7C3C3C1FCC
:103DD0003C780FF87807F87C01F03E03F81FFFFCF1
:103DE00007FE1F00000000000000000000000000AF
:103DF00000000000000000000000000000000000C3
:103E000000000000000000000000003E00003C0038
:103E1000003C00003C00003C00003C00003C000076
:103E20000000000000000000000000000000000092
:103E30000000000000000000000000000000000082
:103E40000000000000000000000000000000000072
:103E50000000000000000000000000000000000062
:103E6000000000000000000000800001C00007808A
:103E7000000F00001E00003C0000780000F0000071
:103E8000E00001E00001E00001C00003C00003C049
:103E90000001C00001E00001E00000F00000F000BF
:103EA000007800003C00001E00000F000007C0006A
:103EB00001C0000000000000000000000000000041
:103EC0000000000000000000000003C00001E0004E
:103ED00000F000007C00003E00001E00000F00000B
:103EE00007800007800003800003C00003C00003B8
:103EF000C00003C0000380000780000780000F009F
:103F0000001E00003C0000780000F00001E000030B
:103F10008000000000000000000000000000000021
:103F200000000000000000000000001C00001C0059
:103F30000018000F18F007DBE0007F0000FF00070B
:103F4000DBE00E1870001800001C00001C000000D0
:103F50000000000000000000000000000000000061
:103F60000000000000000000000000000000000051
:103F70000000000000000000000000000000000041
:103F80000000000000000000000000000000000031
:103F9000000000000000000000003C00003C0000A9
:103FA0003C00003C00003C00003C003FFFFC3FFFA9
:103FB000FC003C00003C00003C00003C00003C00D9
:103FC00000000000000000000000000000000000F1
:103FD00000000000000000000000000000000000E1
:103FE00000000000000000000000000000000000D1
:103FF00000000000000000000000000000000000C1
:1040000000000000000000000000000000000000B0
:1040100000000000000000007C00007E00007E0028
:10402000003E00001E00003C0000F80007E0000415
:104030000000000000000000000000000000000080
:104040000000000000000000000000000000000070
:104050000000000000000000000000000000000060
:10406000000000000000000000000003FFE003FF6C
:10407000E000000000000000000000000000000060
:104080000000000000000000000000000000000030
:104090000000000000000000000000000000000020
:1040A0000000000000000000000000000000000010
:1040B0000000000000000000000000000000000000
:1040C00000000000000000000000000000000000F0
:1040D00000000000000000007C0000FE0000FE0068
:1040E000007E000000000000000000000000000052
:1040F00000000000000000000000000000000000C0
:10410000000000000000000000000000780000F047
:104110000000E00001E00003C00003800007800011
:104120000F00000E00001E00003C00003800007070
:104130000000F00000E00001C00003C000078000A4
:104140000700000F00001E00001C0000000000001F
:10415000000000000000000000000000000000005F
:10416000000000000000000000000000000000004F
:1041700001FFC007FFE00F00F01E00781E003C3C6E
:1041800000FC3C07FC3C1FBC3C7C1C3DF03C3FC0A1
:104190003C3F003C1E00381E00780F80F007FFE017
:1041A00001FF80000000000000000000000000008F
:1041B00000000000000000000000000000000000FF
:1041C00000000000000000000000000000000000EF
:1041D000007E0003FE001FDE000E1E00001E000019
:1041E0001E00001E00001E00001E00001E00001E1B
:1041F00000001E00001E00001E00001E000FFFF841
:104200000FFFF800000000000000000000000000A8
:10421000000000000000000000000000000000009E
:10422000000000000000000000000000000000008E
:1042300003FF800FFFE00E01F00000F00000F0002F
:1042400000F00000F00001E00003C0000F80003E1D
:1042500000007C0001F00003C0000F80001FFFFC85
:104260001FFFFC0000000000000000000000000034
:10427000000000000000000000000000000000003E
:10428000000000000000000000000000000000002E
:104290000FFF800FFFE00001E00000F00000F000E1
:1042A00001E00003C001FF0001FFC00003F00000B7
:1042B000780000780000780000780001F00FFFC05F
:1042C0000FFF0000000000000000000000000000E0
:1042D00000000000000000000000000000000000DE
:1042E00000000000000000000000000000000000CE
:1042F000000FC0001FC0003FC0007BC000F3C00122
:10430000E3C003C3C00783C00F03C01C03C038034E
:10431000C07FFFFE7FFFFE0003C00003C00003C09C
:104320000003C000000000000000000000000000CA
:10433000000000000000000000000000000000007D
:10434000000000000000000000000000000000006D
:104350000FFFE00FFFE00F00000F00000F00000F45
:1043600000000F00000FFF800FFFE00000F00000D2
:10437000780000780000780000F00003E00FFFC034
:104380000FFE000000000000000000000000000020
:10439000000000000000000000000000000000001D
:1043A000000000000000000000000000000000000D
:1043B000003FF001FFF003E0000780000F00001E47
:1043C00000001E1F001FFFE01FC1F81E00781E0026
:1043D0003C1E003C1E003C0F00780F80F807FFE0F9
:1043E00001FF80000000000000000000000000004D
:1043F00000000000000000000000000000000000BD
:1044000000000000000000000000000000000000AC
:104410001FFFFC1FFFFC0000780000F00000E00020
:1044200001E00003C0000780000F00000F00001E25
:1044300000003C0000780000F00001F00001E00006
:1044400003C00000000000000000000000000000A9
:10445000000000000000000000000000000000005C
:10446000000000000000000000000000000000004C
:1044700003FFE00FE3F00F00781E00781E00780FB6
:1044800000F007E3E001FF8001FF8007E7E00F0095
:10449000F81E00781E003C1E007C1F00F80FFFF085
:1044A00003FFC0000000000000000000000000004A
:1044B00000000000000000000000000000000000FC
:1044C00000000000000000000000000000000000EC
:1044D00003FF800FC7E01E00F01E00783C00783C10
:1044E00000783C00381E00780FEFF807FFB8000096
:1044F000780000780000F00001E0000FC00FFF001E
:104500000FF00000000000000000000000000000AC
:10451000000000000000000000000000000000009B
:10452000000000000000000000000000000000008B
:10453000000000000000000000000000007E0000FD
:104540007E00007E00001800000000000000000057
:1045500000000000000000003C00007E00007E0023
:10456000003E00000000000000000000000000000D
:10457000000000000000000000000000000000003B
:10458000000000000000000000000000000000002B
:10459000000000000000000000000000007E00009D
:1045A0007E00007E000018000000000000000000F7
:1045B00000000000000000003E00007E00007F00C0
:1045C000001F00001E00001E0000FC0007F0000499
:1045D00000000000000000000000000000000000DB
:1045E00000000000000000000000000000000000CB
:1045F0000000000000000000400001E00007C000D3
:104600001F00007E0001F80003E0000F80000F8013
:104610000003E00000F800003E00000F800003E00F
:104620000000E000000000000000000000000000AA
:10463000000000000000000000000000000000007A
:10464000000000000000000000000000000000006A
:10465000000000000000000000000000000000005A
:1046600000000000001FFFF8000000000000000034
:10467000001FFFF81FFFF80000000000000000000E
:10468000000000000000000000000000000000002A
:10469000000000000000000000000000000000001A
:1046A000000000000000000000000000000000000A
:1046B00000000000000000000007800003E0000090
:1046C000F800003E00000F800003E00000F8000149
:1046D000F00007C0001F00007C0001F00007C000D0
:1046E00003000000000000000000000000000000C7
:1046F00000000000000000000000000000000000BA
:104700000000000000000000000001C00001FE00E9
:10471000007F800007C00001E00000F00000F00012
:1047200001F00003E0007FC0007E00007000007018
:104730000000700000000000000000F80000F80019
:1047400000F8000000000000000000000000000071
:104750000000000000000000000000000000000059
:1047600000000000000000000000001F8000FFF0BB
:1047700003C07807801C0E000E1C000E3C000F3892
:104780003FC778FFC770E3C771C3C7F3C387E3C3ED
:1047900087E3878EE3878EE3CF8EE3FFFC71F9F02A
:1047A0007000007000003800003C00000F01C007DE
:1047B000FFC000000000000000000000000000003A
:1047C00000000000000000000000000000000000E9
:1047D000007E00007F0000FF0000E78001E780030B
:1047E000C3C003C3C00781E00781E00F00F00F00E2
:1047F000F81FFFF81FFFFC3C003C3C001E78001E29
:10480000F0000F00000000000000000000000000A9
:104810000000000000000000000000000000000098
:104820000000000000000000000000000000000088
:104830001FFFC01FFFF01E00F01E00781E00781E34
:1048400000F01E01F01FFFC01FFFE01E01F81E0058
:10485000781E003C1E003C1E00781E00F81FFFE082
:104860001FFF00000000000000000000000000002A
:104870000000000000000000000000000000000038
:104880000000000000000000000000000000000028
:1048900000FFF803FFF807C0000F00001E00001E15
:1048A00000003C00003C00003C00003C00003C00DC
:1048B000003E00001E00000F00000FC00803FFF8BC
:1048C00000FFF800000000000000000000000000F1
:1048D00000000000000000000000000000000000D8
:1048E00000000000000000000000000000000000C8
:1048F0003FFF003FFFE03C01F03C00783C003C3CC7
:10490000003C3C003C3C001E3C001E3C001E3C00A9
:104910003C3C003C3C00783C00F83C07E03FFFC0DA
:104920003FFC00000000000000000000000000004C
:104930000000000000000000000000000000000077
:104940000000000000000000000000000000000067
:104950000FFFF00FFFF00F00000F00000F00000F1F
:1049600000000F00000FFFF00FFFF00F00000F001E
:10497000000F00000F00000F00000F00000FFFF0FD
:104980000FFFF00000000000000000000000000029
:104990000000000000000000000000000000000017
:1049A0000000000000000000000000000000000007
:1049B0000FFFF00FFFF00F00000F00000F00000FBF
:1049C00000000F00000FFFF00FFFF00F00000F00BE
:1049D000000F00000F00000F00000F00000F00008C
:1049E0000F000000000000000000000000000000B8
:1049F00000000000000000000000000000000000B7
:104A000000000000000000000000000000000000A6
:104A100000FFFC03FFFC0FC0041F00001E00003C51
:104A200000003C0000780FFC780FFC78003C3C0054
:104A30003C3C003C3E003C1F003C0FC03C03FFFCE4
:104A400000FFF8000000000000000000000000006F
:104A50000000000000000000000000000000000056
:104A60000000000000000000000000000000000046
:104A70003C003C3C003C3C003C3C003C3C003C3CA2
:104A8000003C3C003C3FFFFC3FFFFC3C003C3C004A
:104A90003C3C003C3C003C3C003C3C003C3C003C82
:104AA0003C003C000000000000000000000000008E
:104AB00000000000000000000000000000000000F6
:104AC00000000000000000000000000000000000E6
:104AD0000FFFF80FFFF8003C00003C00003C000016
:104AE0003C00003C00003C00003C00003C00003C5E
:104AF00000003C00003C00003C00003C000FFFF8C0
:104B00000FFFF8000000000000000000000000009F
:104B10000000000000000000000000000000000095
:104B20000000000000000000000000000000000085
:104B30000FFFE00FFFE00001E00001E00001E000F6
:104B400001E00001E00001E00001E00001E00001FF
:104B5000E00001E00001E00003C00C07C00FFF808F
:104B600007FE000000000000000000000000000040
:104B70000000000000000000000000000000000035
:104B80000000000000000000000000000000000025
:104B90001E00781E01F01E03C01E07801E1F001E8F
:104BA0003C001E78001EF0001FF0001EF8001E3CA6
:104BB000001E1E001E0F801E07C01E01E01E00F812
:104BC0001E007C000000000000000000000000004B
:104BD00000000000000000000000000000000000D5
:104BE00000000000000000000000000000000000C5
:104BF000078000078000078000078000078000070B
:104C00008000078000078000078000078000078081
:104C10000007800007800007800007800007FFF87A
:104C200007FFF80000000000000000000000000086
:104C30000000000000000000000000000000000074
:104C40000000000000000000000000000000000064
:104C50003E007C3F00FC3F81DC3B81DC3BC39C3958
:104C6000C39C38E71C38EF1C387E1C387C1E383C4F
:104C70001E78001E78001E78001E78001E78001E28
:104C800078001E000000000000000000000000008E
:104C90000000000000000000000000000000000014
:104CA0000000000000000000000000000000000004
:104CB0001F003C1F803C1FC03C1DC03C1DE03C1C35
:104CC000F03C1C783C1C783C1C3C3C1C1E3C1C0FE3
:104CD0003C1C0F3C1C07BC1C03FC1C01FC1C00FC06
:104CE0001C00FC00000000000000000000000000AC
:104CF00000000000000000000000000000000000B4
:104D000000000000000000000000000000000000A3
:104D100001FFC007FFF00F00F81E007C3C003C3C88
:104D2000001E78001E78001E78001E78001E780095
:104D30001E3C003C3C003C1E00781F00F007FFE0DA
:104D400001FF8000000000000000000000000000E3
:104D50000000000000000000000000000000000053
:104D60000000000000000000000000000000000043
:104D70001FFF801FFFF01E00F81E007C1E003C1E5F
:104D8000003C1E003C1E00781E03F01FFFC01FFEEB
:104D9000001E00001E00001E00001E00001E00007D
:104DA0001E000000000000000000000000000000E5
:104DB00000000000000000000000000000000000F3
:104DC00000000000000000000000000000000000E3
:104DD00001FFC007FFF00F00F81E007C3C003C3CC8
:104DE000001E78001E78001E78001E78001E7800D5
:104DF0001E3C003C3C003C1E00781F80F007FFE09A
:104E000001FF80003C00003C00001F06000FFF0077
:104E100001F8000000000000000000000000000099
:104E20000000000000000000000000000000000082
:104E30000FFF800FFFE00E01F00E00F00E00F00EED
:104E400000F00E01F00FFFC00FFF000E1F000E0755
:104E5000800E03C00E01E00E00F00E00F80E007888
:104E60000E003C00000000000000000000000000F8
:104E70000000000000000000000000000000000032
:104E80000000000000000000000000000000000022
:104E900003FFF00FFFF01F00001E00001E00001FA8
:104EA00000000FC00007FC0000FF80000FF00001B1
:104EB000F80000780000780000782000F83FFFE05C
:104EC0003FFF800000000000000000000000000024
:104ED00000000000000000000000000000000000D2
:104EE00000000000000000000000000000000000C2
:104EF0003FFFFC3FFFFC003C00003C00003C00008A
:104F00003C00003C00003C00003C00003C00003C39
:104F100000003C00003C00003C00003C00003C0065
:104F2000003C000000000000000000000000000045
:104F30000000000000000000000000000000000071
:104F40000000000000000000000000000000000061
:104F50003C003C3C003C3C003C3C003C3C003C3CBD
:104F6000003C3C003C3C003C3C003C3C003C3C00E9
:104F70003C3C003C3C003C1E00781F00F80FFFE06A
:104F800003FF80000000000000000000000000009F
:104F90000000000000000000000000000000000011
:104FA0000000000000000000000000000000000001
:104FB000F8000F78001E3C001E3C003C1E00381E0E
:104FC00000780F00700F00F00781E00781E003C355
:104FD000C003E3C001E78000F78000FF00007E000F
:104FE000007E000000000000000000000000000043
:104FF00000000000000000000000000000000000B1
:1050000000000000000000000000000000000000A0
:1050100078000E78000E78000E78001E38001E38DA
:10502000001E383C1C383C1C387E1C387F1C3CE77A
:105030001C3CE79C3DC39C1DC3DC1F81DC1F80F82A
:105040001F00F80000000000000000000000000049
:105050000000000000000000000000000000000050
:105060000000000000000000000000000000000040
:105070003C003C1E00780F00F00781E003C3C00134
:10508000E78000FF00007E00007E0000FF0001FFBF
:105090008003E7C007C3E00F81F01F00F83E007CEB
:1050A0007C003E0000000000000000000000000046
:1050B00000000000000000000000000000000000F0
:1050C00000000000000000000000000000000000E0
:1050D00078001F3C003E1E007C1F00780F80F00708
:1050E000C1E003E3C001E78000FF00007E00003C58
:1050F00000003C00003C00003C00003C00003C0084
:10510000003C000000000000000000000000000063
:10511000000000000000000000000000000000008F
:10512000000000000000000000000000000000007F
:105130001FFFFC1FFFFC0000F80001E00003C0009F
:105140000780000F00001E00003C0000780000F007
:105150000003E00007C0000F80001F00003FFFFCBD
:105160003FFFFC0000000000000000000000000005
:10517000000000000000000000000000000000002F
:105180000000000000000000000001FFC001FFC09F
:1051900001E00001E00001E00001E00001E00001A9
:1051A000E00001E00001E00001E00001E00001E0BA
:1051B0000001E00001E00001E00001E00001E0008A
:1051C00001E00001E00001E00001E00001E0000179
:1051D000FFC0000000000000000000000000000010
:1051E000000000000000000000000E00000F0000A2
:1051F00007000003800003C00001E00000E00000A1
:10520000F000007800003800003C00001E00000E96
:1052100000000F000007800003800001C00001E0D3
:105220000000E000007000007800003C000000007A
:10523000000000000000000000000000000000006E
:105240000000000000000000000003FF8003FF805A
:1052500000078000078000078000078000078000AB
:105260000780000780000780000780000780000794
:10527000800007800007800007800007800007800B
:105280000007800007800007800007800007800378
:10529000FF8000000000000000000000000000008F
:1052A00000000000000000000000000000000000FE
:1052B000003C00007E0000E70001C3800381C007BE
:1052C00000E00E00F01E007800000000000000006A
:1052D00000000000000000000000000000000000CE
:1052E00000000000000000000000000000000000BE
:1052F00000000000000000000000000000000000AE
:10530000000000000000000000000000000000009D
:10531000000000000000000000000000000000008D
:10532000000000000000000000000000000000007D
:10533000000000000000000000000000000000006D
:10534000000000000000000000000000FFFFFFFF61
:10535000FFFF00000000000000000000000000004F
:10536000000000000000000000000F800003E000CB
:1053700000F800003C0000000000000000000000F9
:10538000000000000000000000000000000000001D
:10539000000000000000000000000000000000000D
:1053A00000000000000000000000000000000000FD
:1053B00000000000000000000000000000000000ED
:1053C00000000000000000000000000000000000DD
:1053D00000000000000000000000000007FFC00700
:1053E000E7F00000F000007800007800FFF807FF09
:1053F000F80F00781E00781E00781E03F80FFFF8E3
:1054000007FC780000000000000000000000000021
:10541000000000000000000000000000000000008C
:10542000000000000000000000001E00001E000040
:105430001E00001E00001E00001E00001E7FE01E59
:10544000FFF01FC0781F00781E003C1E003C1E00AD
:105450003C1E003C1E00381E00781E00F01FFFE0BE
:1054600007FF000000000000000000000000000036
:10547000000000000000000000000000000000002C
:10548000000000000000000000000000000000001C
:1054900000000000000000000000000000FFF0031A
:1054A000FFF007C0000F80000F00001E00001E006C
:1054B000001E00000F00000F800007C00003FFF077
:1054C00000FFF000000000000000000000000000ED
:1054D00000000000000000000000000000000000CC
:1054E00000000000000000000000000078000078CC
:1054F00000007800007800007800007801FFF807CD
:10550000FFF80F00781E00781E00783C00783C0001
:10551000783C00781C00781E01F81F03F80FFF7814
:1055200003FC780000000000000000000000000004
:10553000000000000000000000000000000000006B
:10554000000000000000000000000000000000005B
:1055500000000000000000000000000001FFC00784
:10556000E3F00F00F81E00781E003C1FFFFC1FFF39
:10557000FC1C00001E00001E00000F800007FFF84A
:1055800001FFF80000000000000000000000000023
:10559000000000000000000000000000000000000B
:1055A000000000000000000000000003FC001FFEDF
:1055B000003E0000780000780000700000700000DD
:1055C00070003FFFFC3FFFFC0070000070000070A7
:1055D000000070000070000070000070000070009B
:1055E000007000000000000000000000000000004B
:1055F00000000000000000000000000000000000AB
:10560000000000000000000000000000000000009A
:1056100000000000000000000000000003FFFC0785
:10562000C3FC0F00F01E00F01E00F00F00F00F830F
:10563000E00FFFC01E7C001C00001F00000FFFF0E9
:105640000FFFFC1E003C3C003C3C003C1F81F80F5F
:10565000FFE0003800000000000000000000000033
:10566000000000000000000000001E00001E0000FE
:105670001E00001E00001E00001E00001E7FE01E17
:10568000FFF01FC0F01F00781E00781E00781E007B
:10569000781E00781E00781E00781E00781E0078A4
:1056A0001E00780000000000000000000000000064
:1056B00000000000000000000000000000000000EA
:1056C00000000000000000000000003C00007E0020
:1056D000007E00003C000000000000000FFE000FF4
:1056E000FE00001E00001E00001E00001E00001E26
:1056F00000001E00001E00001E00001E000FFFF82C
:105700000FFFF80000000000000000000000000093
:105710000000000000000000000000000000000089
:10572000000000000000000000000003800007E00F
:105730000007E00003800000000000000FFFC00F22
:10574000FFC00003C00003C00003C00003C000038B
:10575000C00003C00003C00003C00003C00003C0BA
:105760000003C00003C00003C00007801E3F001FED
:10577000FE0001C00000000000000000000000006A
:10578000000000000000000000000F00000F0000FB
:105790000F00000F00000F00000F00000F00F80FB7
:1057A00001E00F07C00F1F000F3C000FF8000FF8BB
:1057B000000F3E000F1F000F07C00F03E00F00F89F
:1057C0000F007C000000000000000000000000004E
:1057D00000000000000000000000000000000000C9
:1057E000000000000000000000000FFE000FFE009F
:1057F000001E00001E00001E00001E00001E000013
:105800001E00001E00001E00001E00001E00001EE4
:1058100000001E00001E00001E00001E000FFFF80A
:105820000FFFF80000000000000000000000000072
:105830000000000000000000000000000000000068
:105840000000000000000000000000000000000058
:1058500000000000000000000000000039F9F83BE3
:10586000BBBC3E3E1C3C3E1C383C1C383C1C383CFF
:105870001C383C1C383C1C383C1C383C1C383C1C3C
:10588000383C1C0000000000000000000000000088
:105890000000000000000000000000000000000008
:1058A00000000000000000000000000000000000F8
:1058B0000000000000000000000000001E7FE01E4D
:1058C000FFF01FC0F01F00781E00781E00781E0039
:1058D000781E00781E00781E00781E00781E007862
:1058E0001E00780000000000000000000000000022
:1058F00000000000000000000000000000000000A8
:105900000000000000000000000000000000000097
:1059100000000000000000000000000001FFC007C0
:10592000E7F00F00F81E003C3C003C3C003C3C0013
:105930003C3C003C3C003C1E00781F00F007FFE0B0
:1059400001FF8000000000000000000000000000D7
:105950000000000000000000000000000000000047
:105960000000000000000000000000000000000037
:105970000000000000000000000000001E7FE01E8C
:10598000FFF01FC0781F00781E003C1E003C1E0068
:105990003C1E003C1E00381E00781E00F01FFFE079
:1059A0001FFF001E00001E00001E00001E00001E43
:1059B00000000000000000000000000000000000E7
:1059C00000000000000000000000000000000000D7
:1059D00000000000000000000000000001FFF807C8
:1059E000F7F80F00781E00781E00783C00783C0025
:1059F000783C00781C00781E01F81F03F80FFF7830
:105A000003FC78000078000078000078000078003F
:105A1000007800000000000000000000000000000E
:105A20000000000000000000000000000000000076
:105A30000000000000000000000000000F1FF00F39
:105A40007FF80FE03C0F803C0F003C0F00000F0080
:105A5000000F00000F00000F00000F00000F0000FB
:105A60000F00000000000000000000000000000027
:105A70000000000000000000000000000000000026
:105A80000000000000000000000000000000000016
:105A900000000000000000000000000001FFE0071F
:105AA000E1E00F00000F000007800003FC0000FF92
:105AB000C0000FF00000F00000780000F00FFFE0E1
:105AC0000FFF800000000000000000000000000048
:105AD00000000000000000000000000000000000C6
